{
  "_format": "hh-sol-artifact-1",
  "contractName": "ZKAIToken",
  "sourceName": "contracts/ZKAIToken.sol",
  "abi": [
    {
      "inputs": [],
      "stateMutability": "nonpayable",
      "type": "constructor"
    },
    {
      "anonymous": false,
      "inputs": [
        {
          "indexed": true,
          "internalType": "address",
          "name": "owner",
          "type": "address"
        },
        {
          "indexed": true,
          "internalType": "address",
          "name": "spender",
          "type": "address"
        },
        {
          "indexed": false,
          "internalType": "uint256",
          "name": "value",
          "type": "uint256"
        }
      ],
      "name": "Approval",
      "type": "event"
    },
    {
      "anonymous": false,
      "inputs": [
        {
          "indexed": true,
          "internalType": "address",
          "name": "previousOwner",
          "type": "address"
        },
        {
          "indexed": true,
          "internalType": "address",
          "name": "newOwner",
          "type": "address"
        }
      ],
      "name": "OwnershipTransferred",
      "type": "event"
    },
    {
      "anonymous": false,
      "inputs": [
        {
          "indexed": true,
          "internalType": "address",
          "name": "from",
          "type": "address"
        },
        {
          "indexed": true,
          "internalType": "address",
          "name": "to",
          "type": "address"
        },
        {
          "indexed": false,
          "internalType": "uint256",
          "name": "value",
          "type": "uint256"
        }
      ],
      "name": "Transfer",
      "type": "event"
    },
    {
      "inputs": [
        {
          "internalType": "address",
          "name": "owner",
          "type": "address"
        },
        {
          "internalType": "address",
          "name": "spender",
          "type": "address"
        }
      ],
      "name": "allowance",
      "outputs": [
        {
          "internalType": "uint256",
          "name": "",
          "type": "uint256"
        }
      ],
      "stateMutability": "view",
      "type": "function"
    },
    {
      "inputs": [
        {
          "internalType": "address",
          "name": "spender",
          "type": "address"
        },
        {
          "internalType": "uint256",
          "name": "amount",
          "type": "uint256"
        }
      ],
      "name": "approve",
      "outputs": [
        {
          "internalType": "bool",
          "name": "",
          "type": "bool"
        }
      ],
      "stateMutability": "nonpayable",
      "type": "function"
    },
    {
      "inputs": [
        {
          "internalType": "address",
          "name": "account",
          "type": "address"
        }
      ],
      "name": "balanceOf",
      "outputs": [
        {
          "internalType": "uint256",
          "name": "",
          "type": "uint256"
        }
      ],
      "stateMutability": "view",
      "type": "function"
    },
    {
      "inputs": [
        {
          "internalType": "uint256",
          "name": "amount",
          "type": "uint256"
        }
      ],
      "name": "burn",
      "outputs": [],
      "stateMutability": "nonpayable",
      "type": "function"
    },
    {
      "inputs": [
        {
          "internalType": "address",
          "name": "account",
          "type": "address"
        },
        {
          "internalType": "uint256",
          "name": "amount",
          "type": "uint256"
        }
      ],
      "name": "burnFrom",
      "outputs": [],
      "stateMutability": "nonpayable",
      "type": "function"
    },
    {
      "inputs": [],
      "name": "decimals",
      "outputs": [
        {
          "internalType": "uint8",
          "name": "",
          "type": "uint8"
        }
      ],
      "stateMutability": "view",
      "type": "function"
    },
    {
      "inputs": [
        {
          "internalType": "address",
          "name": "spender",
          "type": "address"
        },
        {
          "internalType": "uint256",
          "name": "subtractedValue",
          "type": "uint256"
        }
      ],
      "name": "decreaseAllowance",
      "outputs": [
        {
          "internalType": "bool",
          "name": "",
          "type": "bool"
        }
      ],
      "stateMutability": "nonpayable",
      "type": "function"
    },
    {
      "inputs": [
        {
          "internalType": "address",
          "name": "spender",
          "type": "address"
        },
        {
          "internalType": "uint256",
          "name": "addedValue",
          "type": "uint256"
        }
      ],
      "name": "increaseAllowance",
      "outputs": [
        {
          "internalType": "bool",
          "name": "",
          "type": "bool"
        }
      ],
      "stateMutability": "nonpayable",
      "type": "function"
    },
    {
      "inputs": [
        {
          "internalType": "address",
          "name": "to",
          "type": "address"
        },
        {
          "internalType": "uint256",
          "name": "amount",
          "type": "uint256"
        }
      ],
      "name": "mint",
      "outputs": [],
      "stateMutability": "nonpayable",
      "type": "function"
    },
    {
      "inputs": [],
      "name": "name",
      "outputs": [
        {
          "internalType": "string",
          "name": "",
          "type": "string"
        }
      ],
      "stateMutability": "view",
      "type": "function"
    },
    {
      "inputs": [],
      "name": "owner",
      "outputs": [
        {
          "internalType": "address",
          "name": "",
          "type": "address"
        }
      ],
      "stateMutability": "view",
      "type": "function"
    },
    {
      "inputs": [],
      "name": "renounceOwnership",
      "outputs": [],
      "stateMutability": "nonpayable",
      "type": "function"
    },
    {
      "inputs": [],
      "name": "symbol",
      "outputs": [
        {
          "internalType": "string",
          "name": "",
          "type": "string"
        }
      ],
      "stateMutability": "view",
      "type": "function"
    },
    {
      "inputs": [],
      "name": "totalSupply",
      "outputs": [
        {
          "internalType": "uint256",
          "name": "",
          "type": "uint256"
        }
      ],
      "stateMutability": "view",
      "type": "function"
    },
    {
      "inputs": [
        {
          "internalType": "address",
          "name": "to",
          "type": "address"
        },
        {
          "internalType": "uint256",
          "name": "amount",
          "type": "uint256"
        }
      ],
      "name": "transfer",
      "outputs": [
        {
          "internalType": "bool",
          "name": "",
          "type": "bool"
        }
      ],
      "stateMutability": "nonpayable",
      "type": "function"
    },
    {
      "inputs": [
        {
          "internalType": "address",
          "name": "from",
          "type": "address"
        },
        {
          "internalType": "address",
          "name": "to",
          "type": "address"
        },
        {
          "internalType": "uint256",
          "name": "amount",
          "type": "uint256"
        }
      ],
      "name": "transferFrom",
      "outputs": [
        {
          "internalType": "bool",
          "name": "",
          "type": "bool"
        }
      ],
      "stateMutability": "nonpayable",
      "type": "function"
    },
    {
      "inputs": [
        {
          "internalType": "address",
          "name": "newOwner",
          "type": "address"
        }
      ],
      "name": "transferOwnership",
      "outputs": [],
      "stateMutability": "nonpayable",
      "type": "function"
    }
  ],
  "bytecode": "0x60806040523480156200001157600080fd5b506040518060400160405280600981526020017f5a4b4149546f6b656e00000000000000000000000000000000000000000000008152506040518060400160405280600481526020017f5a4b41490000000000000000000000000000000000000000000000000000000081525081600390805190602001906200009692919062000366565b508060049080519060200190620000af92919062000366565b505050620000d2620000c66200011760201b60201c565b6200011f60201b60201c565b6200011133620000e7620001e560201b60201c565b600a620000f59190620005b0565b620f424062000105919062000601565b620001ee60201b60201c565b620007d5565b600033905090565b6000600560009054906101000a900473ffffffffffffffffffffffffffffffffffffffff16905081600560006101000a81548173ffffffffffffffffffffffffffffffffffffffff021916908373ffffffffffffffffffffffffffffffffffffffff1602179055508173ffffffffffffffffffffffffffffffffffffffff168173ffffffffffffffffffffffffffffffffffffffff167f8be0079c531659141344cd1fd0a4f28419497f9722a3daafe3b4186f6b6457e060405160405180910390a35050565b60006012905090565b600073ffffffffffffffffffffffffffffffffffffffff168273ffffffffffffffffffffffffffffffffffffffff16141562000261576040517f08c379a00000000000000000000000000000000000000000000000000000000081526004016200025890620006c3565b60405180910390fd5b62000275600083836200035c60201b60201c565b8060026000828254620002899190620006e5565b92505081905550806000808473ffffffffffffffffffffffffffffffffffffffff1673ffffffffffffffffffffffffffffffffffffffff168152602001908152602001600020600082825401925050819055508173ffffffffffffffffffffffffffffffffffffffff16600073ffffffffffffffffffffffffffffffffffffffff167fddf252ad1be2c89b69c2b068fc378daa952ba7f163c4a11628f55a4df523b3ef836040516200033c919062000753565b60405180910390a362000358600083836200036160201b60201c565b5050565b505050565b505050565b82805462000374906200079f565b90600052602060002090601f016020900481019282620003985760008555620003e4565b82601f10620003b357805160ff1916838001178555620003e4565b82800160010185558215620003e4579182015b82811115620003e3578251825591602001919060010190620003c6565b5b509050620003f39190620003f7565b5090565b5b8082111562000412576000816000905550600101620003f8565b5090565b7f4e487b7100000000000000000000000000000000000000000000000000000000600052601160045260246000fd5b60008160011c9050919050565b6000808291508390505b6001851115620004a4578086048111156200047c576200047b62000416565b5b60018516156200048c5780820291505b80810290506200049c8562000445565b94506200045c565b94509492505050565b600082620004bf576001905062000592565b81620004cf576000905062000592565b8160018114620004e85760028114620004f35762000529565b600191505062000592565b60ff84111562000508576200050762000416565b5b8360020a91508482111562000522576200052162000416565b5b5062000592565b5060208310610133831016604e8410600b8410161715620005635782820a9050838111156200055d576200055c62000416565b5b62000592565b62000572848484600162000452565b925090508184048111156200058c576200058b62000416565b5b81810290505b9392505050565b6000819050919050565b600060ff82169050919050565b6000620005bd8262000599565b9150620005ca83620005a3565b9250620005f97fffffffffffffffffffffffffffffffffffffffffffffffffffffffffffffffff8484620004ad565b905092915050565b60006200060e8262000599565b91506200061b8362000599565b9250817fffffffffffffffffffffffffffffffffffffffffffffffffffffffffffffffff048311821515161562000657576200065662000416565b5b828202905092915050565b600082825260208201905092915050565b7f45524332303a206d696e7420746f20746865207a65726f206164647265737300600082015250565b6000620006ab601f8362000662565b9150620006b88262000673565b602082019050919050565b60006020820190508181036000830152620006de816200069c565b9050919050565b6000620006f28262000599565b9150620006ff8362000599565b9250827fffffffffffffffffffffffffffffffffffffffffffffffffffffffffffffffff0382111562000737576200073662000416565b5b828201905092915050565b6200074d8162000599565b82525050565b60006020820190506200076a600083018462000742565b92915050565b7f4e487b7100000000000000000000000000000000000000000000000000000000600052602260045260246000fd5b60006002820490506001821680620007b857607f821691505b60208210811415620007cf57620007ce62000770565b5b50919050565b611bb380620007e56000396000f3fe608060405234801561001057600080fd5b506004361061010b5760003560e01c806370a08231116100a257806395d89b411161007157806395d89b41146102a6578063a457c2d7146102c4578063a9059cbb146102f4578063dd62ed3e14610324578063f2fde38b146103545761010b565b806370a0823114610232578063715018a61461026257806379cc67901461026c5780638da5cb5b146102885761010b565b8063313ce567116100de578063313ce567146101ac57806339509351146101ca57806340c10f19146101fa57806342966c68146102165761010b565b806306fdde0314610110578063095ea7b31461012e57806318160ddd1461015e57806323b872dd1461017c575b600080fd5b610118610370565b6040516101259190611188565b60405180910390f35b61014860048036038101906101439190611243565b610402565b604051610155919061129e565b60405180910390f35b610166610425565b60405161017391906112c8565b60405180910390f35b610196600480360381019061019191906112e3565b61042f565b6040516101a3919061129e565b60405180910390f35b6101b461045e565b6040516101c19190611352565b60405180910390f35b6101e460048036038101906101df9190611243565b610467565b6040516101f1919061129e565b60405180910390f35b610214600480360381019061020f9190611243565b61049e565b005b610230600480360381019061022b919061136d565b6104b4565b005b61024c6004803603810190610247919061139a565b6104c8565b60405161025991906112c8565b60405180910390f35b61026a610510565b005b61028660048036038101906102819190611243565b610524565b005b610290610544565b60405161029d91906113d6565b60405180910390f35b6102ae61056e565b6040516102bb9190611188565b60405180910390f35b6102de60048036038101906102d99190611243565b610600565b6040516102eb919061129e565b60405180910390f35b61030e60048036038101906103099190611243565b610677565b60405161031b919061129e565b60405180910390f35b61033e600480360381019061033991906113f1565b61069a565b60405161034b91906112c8565b60405180910390f35b61036e6004803603810190610369919061139a565b610721565b005b60606003805461037f90611460565b80601f01602080910402602001604051908101604052809291908181526020018280546103ab90611460565b80156103f85780601f106103cd576101008083540402835291602001916103f8565b820191906000526020600020905b8154815290600101906020018083116103db57829003601f168201915b5050505050905090565b60008061040d6107a5565b905061041a8185856107ad565b600191505092915050565b6000600254905090565b60008061043a6107a5565b9050610447858285610978565b610452858585610a04565b60019150509392505050565b60006012905090565b6000806104726107a5565b9050610493818585610484858961069a565b61048e91906114c1565b6107ad565b600191505092915050565b6104a6610c7c565b6104b08282610cfa565b5050565b6104c56104bf6107a5565b82610e51565b50565b60008060008373ffffffffffffffffffffffffffffffffffffffff1673ffffffffffffffffffffffffffffffffffffffff168152602001908152602001600020549050919050565b610518610c7c565b610522600061101f565b565b610536826105306107a5565b83610978565b6105408282610e51565b5050565b6000600560009054906101000a900473ffffffffffffffffffffffffffffffffffffffff16905090565b60606004805461057d90611460565b80601f01602080910402602001604051908101604052809291908181526020018280546105a990611460565b80156105f65780601f106105cb576101008083540402835291602001916105f6565b820191906000526020600020905b8154815290600101906020018083116105d957829003601f168201915b5050505050905090565b60008061060b6107a5565b90506000610619828661069a565b90508381101561065e576040517f08c379a000000000000000000000000000000000000000000000000000000000815260040161065590611589565b60405180910390fd5b61066b82868684036107ad565b60019250505092915050565b6000806106826107a5565b905061068f818585610a04565b600191505092915050565b6000600160008473ffffffffffffffffffffffffffffffffffffffff1673ffffffffffffffffffffffffffffffffffffffff16815260200190815260200160002060008373ffffffffffffffffffffffffffffffffffffffff1673ffffffffffffffffffffffffffffffffffffffff16815260200190815260200160002054905092915050565b610729610c7c565b600073ffffffffffffffffffffffffffffffffffffffff168173ffffffffffffffffffffffffffffffffffffffff161415610799576040517f08c379a00000000000000000000000000000000000000000000000000000000081526004016107909061161b565b60405180910390fd5b6107a28161101f565b50565b600033905090565b600073ffffffffffffffffffffffffffffffffffffffff168373ffffffffffffffffffffffffffffffffffffffff16141561081d576040517f08c379a0000000000000000000000000000000000000000000000000000000008152600401610814906116ad565b60405180910390fd5b600073ffffffffffffffffffffffffffffffffffffffff168273ffffffffffffffffffffffffffffffffffffffff16141561088d576040517f08c379a00000000000000000000000000000000000000000000000000000000081526004016108849061173f565b60405180910390fd5b80600160008573ffffffffffffffffffffffffffffffffffffffff1673ffffffffffffffffffffffffffffffffffffffff16815260200190815260200160002060008473ffffffffffffffffffffffffffffffffffffffff1673ffffffffffffffffffffffffffffffffffffffff168152602001908152602001600020819055508173ffffffffffffffffffffffffffffffffffffffff168373ffffffffffffffffffffffffffffffffffffffff167f8c5be1e5ebec7d5bd14f71427d1e84f3dd0314c0f7b2291e5b200ac8c7c3b9258360405161096b91906112c8565b60405180910390a3505050565b6000610984848461069a565b90507fffffffffffffffffffffffffffffffffffffffffffffffffffffffffffffffff81146109fe57818110156109f0576040517f08c379a00000000000000000000000000000000000000000000000000000000081526004016109e7906117ab565b60405180910390fd5b6109fd84848484036107ad565b5b50505050565b600073ffffffffffffffffffffffffffffffffffffffff168373ffffffffffffffffffffffffffffffffffffffff161415610a74576040517f08c379a0000000000000000000000000000000000000000000000000000000008152600401610a6b9061183d565b60405180910390fd5b600073ffffffffffffffffffffffffffffffffffffffff168273ffffffffffffffffffffffffffffffffffffffff161415610ae4576040517f08c379a0000000000000000000000000000000000000000000000000000000008152600401610adb906118cf565b60405180910390fd5b610aef8383836110e5565b60008060008573ffffffffffffffffffffffffffffffffffffffff1673ffffffffffffffffffffffffffffffffffffffff16815260200190815260200160002054905081811015610b75576040517f08c379a0000000000000000000000000000000000000000000000000000000008152600401610b6c90611961565b60405180910390fd5b8181036000808673ffffffffffffffffffffffffffffffffffffffff1673ffffffffffffffffffffffffffffffffffffffff16815260200190815260200160002081905550816000808573ffffffffffffffffffffffffffffffffffffffff1673ffffffffffffffffffffffffffffffffffffffff168152602001908152602001600020600082825401925050819055508273ffffffffffffffffffffffffffffffffffffffff168473ffffffffffffffffffffffffffffffffffffffff167fddf252ad1be2c89b69c2b068fc378daa952ba7f163c4a11628f55a4df523b3ef84604051610c6391906112c8565b60405180910390a3610c768484846110ea565b50505050565b610c846107a5565b73ffffffffffffffffffffffffffffffffffffffff16610ca2610544565b73ffffffffffffffffffffffffffffffffffffffff1614610cf8576040517f08c379a0000000000000000000000000000000000000000000000000000000008152600401610cef906119cd565b60405180910390fd5b565b600073ffffffffffffffffffffffffffffffffffffffff168273ffffffffffffffffffffffffffffffffffffffff161415610d6a576040517f08c379a0000000000000000000000000000000000000000000000000000000008152600401610d6190611a39565b60405180910390fd5b610d76600083836110e5565b8060026000828254610d8891906114c1565b92505081905550806000808473ffffffffffffffffffffffffffffffffffffffff1673ffffffffffffffffffffffffffffffffffffffff168152602001908152602001600020600082825401925050819055508173ffffffffffffffffffffffffffffffffffffffff16600073ffffffffffffffffffffffffffffffffffffffff167fddf252ad1be2c89b69c2b068fc378daa952ba7f163c4a11628f55a4df523b3ef83604051610e3991906112c8565b60405180910390a3610e4d600083836110ea565b5050565b600073ffffffffffffffffffffffffffffffffffffffff168273ffffffffffffffffffffffffffffffffffffffff161415610ec1576040517f08c379a0000000000000000000000000000000000000000000000000000000008152600401610eb890611acb565b60405180910390fd5b610ecd826000836110e5565b60008060008473ffffffffffffffffffffffffffffffffffffffff1673ffffffffffffffffffffffffffffffffffffffff16815260200190815260200160002054905081811015610f53576040517f08c379a0000000000000000000000000000000000000000000000000000000008152600401610f4a90611b5d565b60405180910390fd5b8181036000808573ffffffffffffffffffffffffffffffffffffffff1673ffffffffffffffffffffffffffffffffffffffff1681526020019081526020016000208190555081600260008282540392505081905550600073ffffffffffffffffffffffffffffffffffffffff168373ffffffffffffffffffffffffffffffffffffffff167fddf252ad1be2c89b69c2b068fc378daa952ba7f163c4a11628f55a4df523b3ef8460405161100691906112c8565b60405180910390a361101a836000846110ea565b505050565b6000600560009054906101000a900473ffffffffffffffffffffffffffffffffffffffff16905081600560006101000a81548173ffffffffffffffffffffffffffffffffffffffff021916908373ffffffffffffffffffffffffffffffffffffffff1602179055508173ffffffffffffffffffffffffffffffffffffffff168173ffffffffffffffffffffffffffffffffffffffff167f8be0079c531659141344cd1fd0a4f28419497f9722a3daafe3b4186f6b6457e060405160405180910390a35050565b505050565b505050565b600081519050919050565b600082825260208201905092915050565b60005b8381101561112957808201518184015260208101905061110e565b83811115611138576000848401525b50505050565b6000601f19601f8301169050919050565b600061115a826110ef565b61116481856110fa565b935061117481856020860161110b565b61117d8161113e565b840191505092915050565b600060208201905081810360008301526111a2818461114f565b905092915050565b600080fd5b600073ffffffffffffffffffffffffffffffffffffffff82169050919050565b60006111da826111af565b9050919050565b6111ea816111cf565b81146111f557600080fd5b50565b600081359050611207816111e1565b92915050565b6000819050919050565b6112208161120d565b811461122b57600080fd5b50565b60008135905061123d81611217565b92915050565b6000806040838503121561125a576112596111aa565b5b6000611268858286016111f8565b92505060206112798582860161122e565b9150509250929050565b60008115159050919050565b61129881611283565b82525050565b60006020820190506112b3600083018461128f565b92915050565b6112c28161120d565b82525050565b60006020820190506112dd60008301846112b9565b92915050565b6000806000606084860312156112fc576112fb6111aa565b5b600061130a868287016111f8565b935050602061131b868287016111f8565b925050604061132c8682870161122e565b9150509250925092565b600060ff82169050919050565b61134c81611336565b82525050565b60006020820190506113676000830184611343565b92915050565b600060208284031215611383576113826111aa565b5b60006113918482850161122e565b91505092915050565b6000602082840312156113b0576113af6111aa565b5b60006113be848285016111f8565b91505092915050565b6113d0816111cf565b82525050565b60006020820190506113eb60008301846113c7565b92915050565b60008060408385031215611408576114076111aa565b5b6000611416858286016111f8565b9250506020611427858286016111f8565b9150509250929050565b7f4e487b7100000000000000000000000000000000000000000000000000000000600052602260045260246000fd5b6000600282049050600182168061147857607f821691505b6020821081141561148c5761148b611431565b5b50919050565b7f4e487b7100000000000000000000000000000000000000000000000000000000600052601160045260246000fd5b60006114cc8261120d565b91506114d78361120d565b9250827fffffffffffffffffffffffffffffffffffffffffffffffffffffffffffffffff0382111561150c5761150b611492565b5b828201905092915050565b7f45524332303a2064656372656173656420616c6c6f77616e63652062656c6f7760008201527f207a65726f000000000000000000000000000000000000000000000000000000602082015250565b60006115736025836110fa565b915061157e82611517565b604082019050919050565b600060208201905081810360008301526115a281611566565b9050919050565b7f4f776e61626c653a206e6577206f776e657220697320746865207a65726f206160008201527f6464726573730000000000000000000000000000000000000000000000000000602082015250565b60006116056026836110fa565b9150611610826115a9565b604082019050919050565b60006020820190508181036000830152611634816115f8565b9050919050565b7f45524332303a20617070726f76652066726f6d20746865207a65726f2061646460008201527f7265737300000000000000000000000000000000000000000000000000000000602082015250565b60006116976024836110fa565b91506116a28261163b565b604082019050919050565b600060208201905081810360008301526116c68161168a565b9050919050565b7f45524332303a20617070726f766520746f20746865207a65726f20616464726560008201527f7373000000000000000000000000000000000000000000000000000000000000602082015250565b60006117296022836110fa565b9150611734826116cd565b604082019050919050565b600060208201905081810360008301526117588161171c565b9050919050565b7f45524332303a20696e73756666696369656e7420616c6c6f77616e6365000000600082015250565b6000611795601d836110fa565b91506117a08261175f565b602082019050919050565b600060208201905081810360008301526117c481611788565b9050919050565b7f45524332303a207472616e736665722066726f6d20746865207a65726f20616460008201527f6472657373000000000000000000000000000000000000000000000000000000602082015250565b60006118276025836110fa565b9150611832826117cb565b604082019050919050565b600060208201905081810360008301526118568161181a565b9050919050565b7f45524332303a207472616e7366657220746f20746865207a65726f206164647260008201527f6573730000000000000000000000000000000000000000000000000000000000602082015250565b60006118b96023836110fa565b91506118c48261185d565b604082019050919050565b600060208201905081810360008301526118e8816118ac565b9050919050565b7f45524332303a207472616e7366657220616d6f756e742065786365656473206260008201527f616c616e63650000000000000000000000000000000000000000000000000000602082015250565b600061194b6026836110fa565b9150611956826118ef565b604082019050919050565b6000602082019050818103600083015261197a8161193e565b9050919050565b7f4f776e61626c653a2063616c6c6572206973206e6f7420746865206f776e6572600082015250565b60006119b76020836110fa565b91506119c282611981565b602082019050919050565b600060208201905081810360008301526119e6816119aa565b9050919050565b7f45524332303a206d696e7420746f20746865207a65726f206164647265737300600082015250565b6000611a23601f836110fa565b9150611a2e826119ed565b602082019050919050565b60006020820190508181036000830152611a5281611a16565b9050919050565b7f45524332303a206275726e2066726f6d20746865207a65726f2061646472657360008201527f7300000000000000000000000000000000000000000000000000000000000000602082015250565b6000611ab56021836110fa565b9150611ac082611a59565b604082019050919050565b60006020820190508181036000830152611ae481611aa8565b9050919050565b7f45524332303a206275726e20616d6f756e7420657863656564732062616c616e60008201527f6365000000000000000000000000000000000000000000000000000000000000602082015250565b6000611b476022836110fa565b9150611b5282611aeb565b604082019050919050565b60006020820190508181036000830152611b7681611b3a565b905091905056fea264697066735822122001d9bd9c1ba2e3f2d66d1372cc04ae4940c3e052fda978dbd1a8cb4dac7ad34a64736f6c63430008090033",
  "linkReferences": {},
  "deployedLinkReferences": {}
}