{
  "_format": "hh-sol-artifact-1",
  "contractName": "ZKAIToken",
  "sourceName": "contracts/ZKAIToken.sol",
  "abi": [
    {
      "inputs": [],
      "stateMutability": "nonpayable",
      "type": "constructor"
    },
    {
      "anonymous": false,
      "inputs": [
        {
          "indexed": true,
          "internalType": "address",
          "name": "owner",
          "type": "address"
        },
        {
          "indexed": true,
          "internalType": "address",
          "name": "spender",
          "type": "address"
        },
        {
          "indexed": false,
          "internalType": "uint256",
          "name": "value",
          "type": "uint256"
        }
      ],
      "name": "Approval",
      "type": "event"
    },
    {
      "anonymous": false,
      "inputs": [
        {
          "indexed": true,
          "internalType": "address",
          "name": "previousOwner",
          "type": "address"
        },
        {
          "indexed": true,
          "internalType": "address",
          "name": "newOwner",
          "type": "address"
        }
      ],
      "name": "OwnershipTransferred",
      "type": "event"
    },
    {
      "anonymous": false,
      "inputs": [
        {
          "indexed": true,
          "internalType": "address",
          "name": "from",
          "type": "address"
        },
        {
          "indexed": true,
          "internalType": "address",
          "name": "to",
          "type": "address"
        },
        {
          "indexed": false,
          "internalType": "uint256",
          "name": "value",
          "type": "uint256"
        }
      ],
      "name": "Transfer",
      "type": "event"
    },
    {
      "inputs": [
        {
          "internalType": "bytes32",
          "name": "",
          "type": "bytes32"
        }
      ],
      "name": "adKeys",
      "outputs": [
        {
          "internalType": "string",
          "name": "",
          "type": "string"
        }
      ],
      "stateMutability": "view",
      "type": "function"
    },
    {
      "inputs": [
        {
          "internalType": "bytes32",
          "name": "hashedID",
          "type": "bytes32"
        }
      ],
      "name": "adTargeting",
      "outputs": [
        {
          "internalType": "string",
          "name": "",
          "type": "string"
        }
      ],
      "stateMutability": "view",
      "type": "function"
    },
    {
      "inputs": [
        {
          "internalType": "bytes32",
          "name": "hashedID",
          "type": "bytes32"
        },
        {
          "internalType": "string",
          "name": "adKey",
          "type": "string"
        }
      ],
      "name": "addAdKey",
      "outputs": [],
      "stateMutability": "nonpayable",
      "type": "function"
    },
    {
      "inputs": [
        {
          "internalType": "bytes32",
          "name": "hashedID",
          "type": "bytes32"
        }
      ],
      "name": "addToWhitelist",
      "outputs": [],
      "stateMutability": "nonpayable",
      "type": "function"
    },
    {
      "inputs": [
        {
          "internalType": "address",
          "name": "owner",
          "type": "address"
        },
        {
          "internalType": "address",
          "name": "spender",
          "type": "address"
        }
      ],
      "name": "allowance",
      "outputs": [
        {
          "internalType": "uint256",
          "name": "",
          "type": "uint256"
        }
      ],
      "stateMutability": "view",
      "type": "function"
    },
    {
      "inputs": [
        {
          "internalType": "address",
          "name": "spender",
          "type": "address"
        },
        {
          "internalType": "uint256",
          "name": "amount",
          "type": "uint256"
        }
      ],
      "name": "approve",
      "outputs": [
        {
          "internalType": "bool",
          "name": "",
          "type": "bool"
        }
      ],
      "stateMutability": "nonpayable",
      "type": "function"
    },
    {
      "inputs": [
        {
          "internalType": "address",
          "name": "account",
          "type": "address"
        }
      ],
      "name": "balanceOf",
      "outputs": [
        {
          "internalType": "uint256",
          "name": "",
          "type": "uint256"
        }
      ],
      "stateMutability": "view",
      "type": "function"
    },
    {
      "inputs": [
        {
          "internalType": "uint256",
          "name": "amount",
          "type": "uint256"
        }
      ],
      "name": "burn",
      "outputs": [],
      "stateMutability": "nonpayable",
      "type": "function"
    },
    {
      "inputs": [
        {
          "internalType": "address",
          "name": "account",
          "type": "address"
        },
        {
          "internalType": "uint256",
          "name": "amount",
          "type": "uint256"
        }
      ],
      "name": "burnFrom",
      "outputs": [],
      "stateMutability": "nonpayable",
      "type": "function"
    },
    {
      "inputs": [],
      "name": "decimals",
      "outputs": [
        {
          "internalType": "uint8",
          "name": "",
          "type": "uint8"
        }
      ],
      "stateMutability": "view",
      "type": "function"
    },
    {
      "inputs": [
        {
          "internalType": "address",
          "name": "spender",
          "type": "address"
        },
        {
          "internalType": "uint256",
          "name": "subtractedValue",
          "type": "uint256"
        }
      ],
      "name": "decreaseAllowance",
      "outputs": [
        {
          "internalType": "bool",
          "name": "",
          "type": "bool"
        }
      ],
      "stateMutability": "nonpayable",
      "type": "function"
    },
    {
      "inputs": [
        {
          "internalType": "address",
          "name": "spender",
          "type": "address"
        },
        {
          "internalType": "uint256",
          "name": "addedValue",
          "type": "uint256"
        }
      ],
      "name": "increaseAllowance",
      "outputs": [
        {
          "internalType": "bool",
          "name": "",
          "type": "bool"
        }
      ],
      "stateMutability": "nonpayable",
      "type": "function"
    },
    {
      "inputs": [
        {
          "internalType": "address",
          "name": "to",
          "type": "address"
        },
        {
          "internalType": "uint256",
          "name": "amount",
          "type": "uint256"
        }
      ],
      "name": "mint",
      "outputs": [],
      "stateMutability": "nonpayable",
      "type": "function"
    },
    {
      "inputs": [],
      "name": "name",
      "outputs": [
        {
          "internalType": "string",
          "name": "",
          "type": "string"
        }
      ],
      "stateMutability": "view",
      "type": "function"
    },
    {
      "inputs": [],
      "name": "owner",
      "outputs": [
        {
          "internalType": "address",
          "name": "",
          "type": "address"
        }
      ],
      "stateMutability": "view",
      "type": "function"
    },
    {
      "inputs": [
        {
          "internalType": "address",
          "name": "user",
          "type": "address"
        },
        {
          "internalType": "bool",
          "name": "swipedRight",
          "type": "bool"
        }
      ],
      "name": "payUserForAdSwipe",
      "outputs": [],
      "stateMutability": "nonpayable",
      "type": "function"
    },
    {
      "inputs": [],
      "name": "renounceOwnership",
      "outputs": [],
      "stateMutability": "nonpayable",
      "type": "function"
    },
    {
      "inputs": [],
      "name": "symbol",
      "outputs": [
        {
          "internalType": "string",
          "name": "",
          "type": "string"
        }
      ],
      "stateMutability": "view",
      "type": "function"
    },
    {
      "inputs": [],
      "name": "tokenPool",
      "outputs": [
        {
          "internalType": "uint256",
          "name": "",
          "type": "uint256"
        }
      ],
      "stateMutability": "view",
      "type": "function"
    },
    {
      "inputs": [],
      "name": "totalSupply",
      "outputs": [
        {
          "internalType": "uint256",
          "name": "",
          "type": "uint256"
        }
      ],
      "stateMutability": "view",
      "type": "function"
    },
    {
      "inputs": [
        {
          "internalType": "address",
          "name": "to",
          "type": "address"
        },
        {
          "internalType": "uint256",
          "name": "amount",
          "type": "uint256"
        }
      ],
      "name": "transfer",
      "outputs": [
        {
          "internalType": "bool",
          "name": "",
          "type": "bool"
        }
      ],
      "stateMutability": "nonpayable",
      "type": "function"
    },
    {
      "inputs": [
        {
          "internalType": "address",
          "name": "from",
          "type": "address"
        },
        {
          "internalType": "address",
          "name": "to",
          "type": "address"
        },
        {
          "internalType": "uint256",
          "name": "amount",
          "type": "uint256"
        }
      ],
      "name": "transferFrom",
      "outputs": [
        {
          "internalType": "bool",
          "name": "",
          "type": "bool"
        }
      ],
      "stateMutability": "nonpayable",
      "type": "function"
    },
    {
      "inputs": [
        {
          "internalType": "address",
          "name": "newOwner",
          "type": "address"
        }
      ],
      "name": "transferOwnership",
      "outputs": [],
      "stateMutability": "nonpayable",
      "type": "function"
    },
    {
      "inputs": [
        {
          "internalType": "bytes32",
          "name": "",
          "type": "bytes32"
        }
      ],
      "name": "whitelist",
      "outputs": [
        {
          "internalType": "bool",
          "name": "",
          "type": "bool"
        }
      ],
      "stateMutability": "view",
      "type": "function"
    }
  ],
  "bytecode": "0x6080604052620000146200011d60201b60201c565b600a620000229190620005b6565b620f424062000032919062000607565b6008553480156200004257600080fd5b506040518060400160405280600981526020017f5a4b4149546f6b656e00000000000000000000000000000000000000000000008152506040518060400160405280600481526020017f5a4b4149000000000000000000000000000000000000000000000000000000008152508160039080519060200190620000c79291906200036c565b508060049080519060200190620000e09291906200036c565b50505062000103620000f76200012660201b60201c565b6200012e60201b60201c565b6200011733600854620001f460201b60201c565b620007db565b60006012905090565b600033905090565b6000600560009054906101000a900473ffffffffffffffffffffffffffffffffffffffff16905081600560006101000a81548173ffffffffffffffffffffffffffffffffffffffff021916908373ffffffffffffffffffffffffffffffffffffffff1602179055508173ffffffffffffffffffffffffffffffffffffffff168173ffffffffffffffffffffffffffffffffffffffff167f8be0079c531659141344cd1fd0a4f28419497f9722a3daafe3b4186f6b6457e060405160405180910390a35050565b600073ffffffffffffffffffffffffffffffffffffffff168273ffffffffffffffffffffffffffffffffffffffff16141562000267576040517f08c379a00000000000000000000000000000000000000000000000000000000081526004016200025e90620006c9565b60405180910390fd5b6200027b600083836200036260201b60201c565b80600260008282546200028f9190620006eb565b92505081905550806000808473ffffffffffffffffffffffffffffffffffffffff1673ffffffffffffffffffffffffffffffffffffffff168152602001908152602001600020600082825401925050819055508173ffffffffffffffffffffffffffffffffffffffff16600073ffffffffffffffffffffffffffffffffffffffff167fddf252ad1be2c89b69c2b068fc378daa952ba7f163c4a11628f55a4df523b3ef8360405162000342919062000759565b60405180910390a36200035e600083836200036760201b60201c565b5050565b505050565b505050565b8280546200037a90620007a5565b90600052602060002090601f0160209004810192826200039e5760008555620003ea565b82601f10620003b957805160ff1916838001178555620003ea565b82800160010185558215620003ea579182015b82811115620003e9578251825591602001919060010190620003cc565b5b509050620003f99190620003fd565b5090565b5b8082111562000418576000816000905550600101620003fe565b5090565b7f4e487b7100000000000000000000000000000000000000000000000000000000600052601160045260246000fd5b60008160011c9050919050565b6000808291508390505b6001851115620004aa578086048111156200048257620004816200041c565b5b6001851615620004925780820291505b8081029050620004a2856200044b565b945062000462565b94509492505050565b600082620004c5576001905062000598565b81620004d5576000905062000598565b8160018114620004ee5760028114620004f9576200052f565b600191505062000598565b60ff8411156200050e576200050d6200041c565b5b8360020a9150848211156200052857620005276200041c565b5b5062000598565b5060208310610133831016604e8410600b8410161715620005695782820a9050838111156200056357620005626200041c565b5b62000598565b62000578848484600162000458565b925090508184048111156200059257620005916200041c565b5b81810290505b9392505050565b6000819050919050565b600060ff82169050919050565b6000620005c3826200059f565b9150620005d083620005a9565b9250620005ff7fffffffffffffffffffffffffffffffffffffffffffffffffffffffffffffffff8484620004b3565b905092915050565b600062000614826200059f565b915062000621836200059f565b9250817fffffffffffffffffffffffffffffffffffffffffffffffffffffffffffffffff04831182151516156200065d576200065c6200041c565b5b828202905092915050565b600082825260208201905092915050565b7f45524332303a206d696e7420746f20746865207a65726f206164647265737300600082015250565b6000620006b1601f8362000668565b9150620006be8262000679565b602082019050919050565b60006020820190508181036000830152620006e481620006a2565b9050919050565b6000620006f8826200059f565b915062000705836200059f565b9250827fffffffffffffffffffffffffffffffffffffffffffffffffffffffffffffffff038211156200073d576200073c6200041c565b5b828201905092915050565b62000753816200059f565b82525050565b600060208201905062000770600083018462000748565b92915050565b7f4e487b7100000000000000000000000000000000000000000000000000000000600052602260045260246000fd5b60006002820490506001821680620007be57607f821691505b60208210811415620007d557620007d462000776565b5b50919050565b612a3380620007eb6000396000f3fe608060405234801561001057600080fd5b50600436106101585760003560e01c806370a08231116100c3578063a457c2d71161007c578063a457c2d7146103c7578063a9059cbb146103f7578063afb40c8e14610427578063bd8cc96214610457578063dd62ed3e14610473578063f2fde38b146104a357610158565b806370a0823114610319578063715018a61461034957806379cc679014610353578063830796b51461036f5780638da5cb5b1461038b57806395d89b41146103a957610158565b8063313ce56711610115578063313ce56714610247578063385bc54214610265578063395093511461029557806340c10f19146102c557806342966c68146102e15780635ee24a1c146102fd57610158565b806306fdde031461015d578063095ea7b31461017b578063104e9929146101ab57806318160ddd146101c95780631e5c4b3d146101e757806323b872dd14610217575b600080fd5b6101656104bf565b6040516101729190611a85565b60405180910390f35b61019560048036038101906101909190611b4f565b610551565b6040516101a29190611baa565b60405180910390f35b6101b3610574565b6040516101c09190611bd4565b60405180910390f35b6101d161057a565b6040516101de9190611bd4565b60405180910390f35b61020160048036038101906101fc9190611c25565b610584565b60405161020e9190611a85565b60405180910390f35b610231600480360381019061022c9190611c52565b610731565b60405161023e9190611baa565b60405180910390f35b61024f610760565b60405161025c9190611cc1565b60405180910390f35b61027f600480360381019061027a9190611c25565b610769565b60405161028c9190611a85565b60405180910390f35b6102af60048036038101906102aa9190611b4f565b610809565b6040516102bc9190611baa565b60405180910390f35b6102df60048036038101906102da9190611b4f565b610840565b005b6102fb60048036038101906102f69190611cdc565b610856565b005b61031760048036038101906103129190611d35565b61086a565b005b610333600480360381019061032e9190611d75565b610a76565b6040516103409190611bd4565b60405180910390f35b610351610abe565b005b61036d60048036038101906103689190611b4f565b610ad2565b005b61038960048036038101906103849190611ed7565b610af2565b005b610393610b26565b6040516103a09190611f42565b60405180910390f35b6103b1610b50565b6040516103be9190611a85565b60405180910390f35b6103e160048036038101906103dc9190611b4f565b610be2565b6040516103ee9190611baa565b60405180910390f35b610411600480360381019061040c9190611b4f565b610c59565b60405161041e9190611baa565b60405180910390f35b610441600480360381019061043c9190611c25565b610c7c565b60405161044e9190611baa565b60405180910390f35b610471600480360381019061046c9190611c25565b610c9c565b005b61048d60048036038101906104889190611f5d565b610cd3565b60405161049a9190611bd4565b60405180910390f35b6104bd60048036038101906104b89190611d75565b610d5a565b005b6060600380546104ce90611fcc565b80601f01602080910402602001604051908101604052809291908181526020018280546104fa90611fcc565b80156105475780601f1061051c57610100808354040283529160200191610547565b820191906000526020600020905b81548152906001019060200180831161052a57829003601f168201915b5050505050905090565b60008061055c610dde565b9050610569818585610de6565b600191505092915050565b60085481565b6000600254905090565b60606105c46040518060400160405280601381526020017f526563656976696e672068617368656420494400000000000000000000000000815250610fb1565b6006600083815260200190815260200160002060009054906101000a900460ff16156106105761060b6040518060600160405280602281526020016129dc60229139610fb1565b610648565b6106316040518060600160405280602781526020016129b560279139610fb1565b60405180602001604052806000815250905061072c565b600060076000848152602001908152602001600020805461066890611fcc565b80601f016020809104026020016040519081016040528092919081815260200182805461069490611fcc565b80156106e15780601f106106b6576101008083540402835291602001916106e1565b820191906000526020600020905b8154815290600101906020018083116106c457829003601f168201915b505050505090506107276040518060400160405280601a81526020017f52657475726e696e6720616420746172676574696e67206b65790000000000008152508261104a565b809150505b919050565b60008061073c610dde565b90506107498582856110e6565b610754858585611172565b60019150509392505050565b60006012905090565b6007602052806000526040600020600091509050805461078890611fcc565b80601f01602080910402602001604051908101604052809291908181526020018280546107b490611fcc565b80156108015780601f106107d657610100808354040283529160200191610801565b820191906000526020600020905b8154815290600101906020018083116107e457829003601f168201915b505050505081565b600080610814610dde565b90506108358185856108268589610cd3565b610830919061202d565b610de6565b600191505092915050565b6108486113ea565b6108528282611468565b5050565b610867610861610dde565b826115bf565b50565b6108726113ea565b61089360405180606001604052806029815260200161298c60299139610fb1565b80156108dc576108d76040518060400160405280601181526020017f5573657220737769706564207269676874000000000000000000000000000000815250610fb1565b61091b565b61091a6040518060400160405280601081526020017f5573657220737769706564206c65667400000000000000000000000000000000815250610fb1565b5b6000610925610760565b600a61093191906121b6565b606461093d9190612201565b905061094a308483611172565b6109896040518060400160405280601281526020017f53656e7420746f6b656e20746f207573657200000000000000000000000000008152508261178d565b806008600082825461099b919061225b565b925050819055506109e36040518060400160405280601281526020017f5570646174656420746f6b656e20706f6f6c000000000000000000000000000081525060085461178d565b610a2a6040518060400160405280601a81526020017f55706461746564207573657220746f6b656e2062616c616e6365000000000000815250610a2585610a76565b61178d565b610a716040518060400160405280601881526020017f5570646174656420616420746f6b656e2062616c616e63650000000000000000815250610a6c30610a76565b61178d565b505050565b60008060008373ffffffffffffffffffffffffffffffffffffffff1673ffffffffffffffffffffffffffffffffffffffff168152602001908152602001600020549050919050565b610ac66113ea565b610ad06000611829565b565b610ae482610ade610dde565b836110e6565b610aee82826115bf565b5050565b610afa6113ea565b80600760008481526020019081526020016000209080519060200190610b2192919061193f565b505050565b6000600560009054906101000a900473ffffffffffffffffffffffffffffffffffffffff16905090565b606060048054610b5f90611fcc565b80601f0160208091040260200160405190810160405280929190818152602001828054610b8b90611fcc565b8015610bd85780601f10610bad57610100808354040283529160200191610bd8565b820191906000526020600020905b815481529060010190602001808311610bbb57829003601f168201915b5050505050905090565b600080610bed610dde565b90506000610bfb8286610cd3565b905083811015610c40576040517f08c379a0000000000000000000000000000000000000000000000000000000008152600401610c3790612301565b60405180910390fd5b610c4d8286868403610de6565b60019250505092915050565b600080610c64610dde565b9050610c71818585611172565b600191505092915050565b60066020528060005260406000206000915054906101000a900460ff1681565b610ca46113ea565b60016006600083815260200190815260200160002060006101000a81548160ff02191690831515021790555050565b6000600160008473ffffffffffffffffffffffffffffffffffffffff1673ffffffffffffffffffffffffffffffffffffffff16815260200190815260200160002060008373ffffffffffffffffffffffffffffffffffffffff1673ffffffffffffffffffffffffffffffffffffffff16815260200190815260200160002054905092915050565b610d626113ea565b600073ffffffffffffffffffffffffffffffffffffffff168173ffffffffffffffffffffffffffffffffffffffff161415610dd2576040517f08c379a0000000000000000000000000000000000000000000000000000000008152600401610dc990612393565b60405180910390fd5b610ddb81611829565b50565b600033905090565b600073ffffffffffffffffffffffffffffffffffffffff168373ffffffffffffffffffffffffffffffffffffffff161415610e56576040517f08c379a0000000000000000000000000000000000000000000000000000000008152600401610e4d90612425565b60405180910390fd5b600073ffffffffffffffffffffffffffffffffffffffff168273ffffffffffffffffffffffffffffffffffffffff161415610ec6576040517f08c379a0000000000000000000000000000000000000000000000000000000008152600401610ebd906124b7565b60405180910390fd5b80600160008573ffffffffffffffffffffffffffffffffffffffff1673ffffffffffffffffffffffffffffffffffffffff16815260200190815260200160002060008473ffffffffffffffffffffffffffffffffffffffff1673ffffffffffffffffffffffffffffffffffffffff168152602001908152602001600020819055508173ffffffffffffffffffffffffffffffffffffffff168373ffffffffffffffffffffffffffffffffffffffff167f8c5be1e5ebec7d5bd14f71427d1e84f3dd0314c0f7b2291e5b200ac8c7c3b92583604051610fa49190611bd4565b60405180910390a3505050565b61104781604051602401610fc59190611a85565b6040516020818303038152906040527f41304fac000000000000000000000000000000000000000000000000000000007bffffffffffffffffffffffffffffffffffffffffffffffffffffffff19166020820180517bffffffffffffffffffffffffffffffffffffffffffffffffffffffff83818316178352505050506118ef565b50565b6110e282826040516024016110609291906124d7565b6040516020818303038152906040527f4b5c4277000000000000000000000000000000000000000000000000000000007bffffffffffffffffffffffffffffffffffffffffffffffffffffffff19166020820180517bffffffffffffffffffffffffffffffffffffffffffffffffffffffff83818316178352505050506118ef565b5050565b60006110f28484610cd3565b90507fffffffffffffffffffffffffffffffffffffffffffffffffffffffffffffffff811461116c578181101561115e576040517f08c379a00000000000000000000000000000000000000000000000000000000081526004016111559061255a565b60405180910390fd5b61116b8484848403610de6565b5b50505050565b600073ffffffffffffffffffffffffffffffffffffffff168373ffffffffffffffffffffffffffffffffffffffff1614156111e2576040517f08c379a00000000000000000000000000000000000000000000000000000000081526004016111d9906125ec565b60405180910390fd5b600073ffffffffffffffffffffffffffffffffffffffff168273ffffffffffffffffffffffffffffffffffffffff161415611252576040517f08c379a00000000000000000000000000000000000000000000000000000000081526004016112499061267e565b60405180910390fd5b61125d838383611909565b60008060008573ffffffffffffffffffffffffffffffffffffffff1673ffffffffffffffffffffffffffffffffffffffff168152602001908152602001600020549050818110156112e3576040517f08c379a00000000000000000000000000000000000000000000000000000000081526004016112da90612710565b60405180910390fd5b8181036000808673ffffffffffffffffffffffffffffffffffffffff1673ffffffffffffffffffffffffffffffffffffffff16815260200190815260200160002081905550816000808573ffffffffffffffffffffffffffffffffffffffff1673ffffffffffffffffffffffffffffffffffffffff168152602001908152602001600020600082825401925050819055508273ffffffffffffffffffffffffffffffffffffffff168473ffffffffffffffffffffffffffffffffffffffff167fddf252ad1be2c89b69c2b068fc378daa952ba7f163c4a11628f55a4df523b3ef846040516113d19190611bd4565b60405180910390a36113e484848461190e565b50505050565b6113f2610dde565b73ffffffffffffffffffffffffffffffffffffffff16611410610b26565b73ffffffffffffffffffffffffffffffffffffffff1614611466576040517f08c379a000000000000000000000000000000000000000000000000000000000815260040161145d9061277c565b60405180910390fd5b565b600073ffffffffffffffffffffffffffffffffffffffff168273ffffffffffffffffffffffffffffffffffffffff1614156114d8576040517f08c379a00000000000000000000000000000000000000000000000000000000081526004016114cf906127e8565b60405180910390fd5b6114e460008383611909565b80600260008282546114f6919061202d565b92505081905550806000808473ffffffffffffffffffffffffffffffffffffffff1673ffffffffffffffffffffffffffffffffffffffff168152602001908152602001600020600082825401925050819055508173ffffffffffffffffffffffffffffffffffffffff16600073ffffffffffffffffffffffffffffffffffffffff167fddf252ad1be2c89b69c2b068fc378daa952ba7f163c4a11628f55a4df523b3ef836040516115a79190611bd4565b60405180910390a36115bb6000838361190e565b5050565b600073ffffffffffffffffffffffffffffffffffffffff168273ffffffffffffffffffffffffffffffffffffffff16141561162f576040517f08c379a00000000000000000000000000000000000000000000000000000000081526004016116269061287a565b60405180910390fd5b61163b82600083611909565b60008060008473ffffffffffffffffffffffffffffffffffffffff1673ffffffffffffffffffffffffffffffffffffffff168152602001908152602001600020549050818110156116c1576040517f08c379a00000000000000000000000000000000000000000000000000000000081526004016116b89061290c565b60405180910390fd5b8181036000808573ffffffffffffffffffffffffffffffffffffffff1673ffffffffffffffffffffffffffffffffffffffff1681526020019081526020016000208190555081600260008282540392505081905550600073ffffffffffffffffffffffffffffffffffffffff168373ffffffffffffffffffffffffffffffffffffffff167fddf252ad1be2c89b69c2b068fc378daa952ba7f163c4a11628f55a4df523b3ef846040516117749190611bd4565b60405180910390a36117888360008461190e565b505050565b61182582826040516024016117a392919061292c565b6040516020818303038152906040527fb60e72cc000000000000000000000000000000000000000000000000000000007bffffffffffffffffffffffffffffffffffffffffffffffffffffffff19166020820180517bffffffffffffffffffffffffffffffffffffffffffffffffffffffff83818316178352505050506118ef565b5050565b6000600560009054906101000a900473ffffffffffffffffffffffffffffffffffffffff16905081600560006101000a81548173ffffffffffffffffffffffffffffffffffffffff021916908373ffffffffffffffffffffffffffffffffffffffff1602179055508173ffffffffffffffffffffffffffffffffffffffff168173ffffffffffffffffffffffffffffffffffffffff167f8be0079c531659141344cd1fd0a4f28419497f9722a3daafe3b4186f6b6457e060405160405180910390a35050565b611906816118fe611913611934565b63ffffffff16565b50565b505050565b505050565b60006a636f6e736f6c652e6c6f679050600080835160208501845afa505050565b6119c5819050919050565b82805461194b90611fcc565b90600052602060002090601f01602090048101928261196d57600085556119b4565b82601f1061198657805160ff19168380011785556119b4565b828001600101855582156119b4579182015b828111156119b3578251825591602001919060010190611998565b5b5090506119c191906119cf565b5090565b6119cd61295c565b565b5b808211156119e85760008160009055506001016119d0565b5090565b600081519050919050565b600082825260208201905092915050565b60005b83811015611a26578082015181840152602081019050611a0b565b83811115611a35576000848401525b50505050565b6000601f19601f8301169050919050565b6000611a57826119ec565b611a6181856119f7565b9350611a71818560208601611a08565b611a7a81611a3b565b840191505092915050565b60006020820190508181036000830152611a9f8184611a4c565b905092915050565b6000604051905090565b600080fd5b600080fd5b600073ffffffffffffffffffffffffffffffffffffffff82169050919050565b6000611ae682611abb565b9050919050565b611af681611adb565b8114611b0157600080fd5b50565b600081359050611b1381611aed565b92915050565b6000819050919050565b611b2c81611b19565b8114611b3757600080fd5b50565b600081359050611b4981611b23565b92915050565b60008060408385031215611b6657611b65611ab1565b5b6000611b7485828601611b04565b9250506020611b8585828601611b3a565b9150509250929050565b60008115159050919050565b611ba481611b8f565b82525050565b6000602082019050611bbf6000830184611b9b565b92915050565b611bce81611b19565b82525050565b6000602082019050611be96000830184611bc5565b92915050565b6000819050919050565b611c0281611bef565b8114611c0d57600080fd5b50565b600081359050611c1f81611bf9565b92915050565b600060208284031215611c3b57611c3a611ab1565b5b6000611c4984828501611c10565b91505092915050565b600080600060608486031215611c6b57611c6a611ab1565b5b6000611c7986828701611b04565b9350506020611c8a86828701611b04565b9250506040611c9b86828701611b3a565b9150509250925092565b600060ff82169050919050565b611cbb81611ca5565b82525050565b6000602082019050611cd66000830184611cb2565b92915050565b600060208284031215611cf257611cf1611ab1565b5b6000611d0084828501611b3a565b91505092915050565b611d1281611b8f565b8114611d1d57600080fd5b50565b600081359050611d2f81611d09565b92915050565b60008060408385031215611d4c57611d4b611ab1565b5b6000611d5a85828601611b04565b9250506020611d6b85828601611d20565b9150509250929050565b600060208284031215611d8b57611d8a611ab1565b5b6000611d9984828501611b04565b91505092915050565b600080fd5b600080fd5b7f4e487b7100000000000000000000000000000000000000000000000000000000600052604160045260246000fd5b611de482611a3b565b810181811067ffffffffffffffff82111715611e0357611e02611dac565b5b80604052505050565b6000611e16611aa7565b9050611e228282611ddb565b919050565b600067ffffffffffffffff821115611e4257611e41611dac565b5b611e4b82611a3b565b9050602081019050919050565b82818337600083830152505050565b6000611e7a611e7584611e27565b611e0c565b905082815260208101848484011115611e9657611e95611da7565b5b611ea1848285611e58565b509392505050565b600082601f830112611ebe57611ebd611da2565b5b8135611ece848260208601611e67565b91505092915050565b60008060408385031215611eee57611eed611ab1565b5b6000611efc85828601611c10565b925050602083013567ffffffffffffffff811115611f1d57611f1c611ab6565b5b611f2985828601611ea9565b9150509250929050565b611f3c81611adb565b82525050565b6000602082019050611f576000830184611f33565b92915050565b60008060408385031215611f7457611f73611ab1565b5b6000611f8285828601611b04565b9250506020611f9385828601611b04565b9150509250929050565b7f4e487b7100000000000000000000000000000000000000000000000000000000600052602260045260246000fd5b60006002820490506001821680611fe457607f821691505b60208210811415611ff857611ff7611f9d565b5b50919050565b7f4e487b7100000000000000000000000000000000000000000000000000000000600052601160045260246000fd5b600061203882611b19565b915061204383611b19565b9250827fffffffffffffffffffffffffffffffffffffffffffffffffffffffffffffffff0382111561207857612077611ffe565b5b828201905092915050565b60008160011c9050919050565b6000808291508390505b60018511156120da578086048111156120b6576120b5611ffe565b5b60018516156120c55780820291505b80810290506120d385612083565b945061209a565b94509492505050565b6000826120f357600190506121af565b8161210157600090506121af565b8160018114612117576002811461212157612150565b60019150506121af565b60ff84111561213357612132611ffe565b5b8360020a91508482111561214a57612149611ffe565b5b506121af565b5060208310610133831016604e8410600b84101617156121855782820a9050838111156121805761217f611ffe565b5b6121af565b6121928484846001612090565b925090508184048111156121a9576121a8611ffe565b5b81810290505b9392505050565b60006121c182611b19565b91506121cc83611ca5565b92506121f97fffffffffffffffffffffffffffffffffffffffffffffffffffffffffffffffff84846120e3565b905092915050565b600061220c82611b19565b915061221783611b19565b9250817fffffffffffffffffffffffffffffffffffffffffffffffffffffffffffffffff04831182151516156122505761224f611ffe565b5b828202905092915050565b600061226682611b19565b915061227183611b19565b92508282101561228457612283611ffe565b5b828203905092915050565b7f45524332303a2064656372656173656420616c6c6f77616e63652062656c6f7760008201527f207a65726f000000000000000000000000000000000000000000000000000000602082015250565b60006122eb6025836119f7565b91506122f68261228f565b604082019050919050565b6000602082019050818103600083015261231a816122de565b9050919050565b7f4f776e61626c653a206e6577206f776e657220697320746865207a65726f206160008201527f6464726573730000000000000000000000000000000000000000000000000000602082015250565b600061237d6026836119f7565b915061238882612321565b604082019050919050565b600060208201905081810360008301526123ac81612370565b9050919050565b7f45524332303a20617070726f76652066726f6d20746865207a65726f2061646460008201527f7265737300000000000000000000000000000000000000000000000000000000602082015250565b600061240f6024836119f7565b915061241a826123b3565b604082019050919050565b6000602082019050818103600083015261243e81612402565b9050919050565b7f45524332303a20617070726f766520746f20746865207a65726f20616464726560008201527f7373000000000000000000000000000000000000000000000000000000000000602082015250565b60006124a16022836119f7565b91506124ac82612445565b604082019050919050565b600060208201905081810360008301526124d081612494565b9050919050565b600060408201905081810360008301526124f18185611a4c565b905081810360208301526125058184611a4c565b90509392505050565b7f45524332303a20696e73756666696369656e7420616c6c6f77616e6365000000600082015250565b6000612544601d836119f7565b915061254f8261250e565b602082019050919050565b6000602082019050818103600083015261257381612537565b9050919050565b7f45524332303a207472616e736665722066726f6d20746865207a65726f20616460008201527f6472657373000000000000000000000000000000000000000000000000000000602082015250565b60006125d66025836119f7565b91506125e18261257a565b604082019050919050565b60006020820190508181036000830152612605816125c9565b9050919050565b7f45524332303a207472616e7366657220746f20746865207a65726f206164647260008201527f6573730000000000000000000000000000000000000000000000000000000000602082015250565b60006126686023836119f7565b91506126738261260c565b604082019050919050565b600060208201905081810360008301526126978161265b565b9050919050565b7f45524332303a207472616e7366657220616d6f756e742065786365656473206260008201527f616c616e63650000000000000000000000000000000000000000000000000000602082015250565b60006126fa6026836119f7565b91506127058261269e565b604082019050919050565b60006020820190508181036000830152612729816126ed565b9050919050565b7f4f776e61626c653a2063616c6c6572206973206e6f7420746865206f776e6572600082015250565b60006127666020836119f7565b915061277182612730565b602082019050919050565b6000602082019050818103600083015261279581612759565b9050919050565b7f45524332303a206d696e7420746f20746865207a65726f206164647265737300600082015250565b60006127d2601f836119f7565b91506127dd8261279c565b602082019050919050565b60006020820190508181036000830152612801816127c5565b9050919050565b7f45524332303a206275726e2066726f6d20746865207a65726f2061646472657360008201527f7300000000000000000000000000000000000000000000000000000000000000602082015250565b60006128646021836119f7565b915061286f82612808565b604082019050919050565b6000602082019050818103600083015261289381612857565b9050919050565b7f45524332303a206275726e20616d6f756e7420657863656564732062616c616e60008201527f6365000000000000000000000000000000000000000000000000000000000000602082015250565b60006128f66022836119f7565b91506129018261289a565b604082019050919050565b60006020820190508181036000830152612925816128e9565b9050919050565b600060408201905081810360008301526129468185611a4c565b90506129556020830184611bc5565b9392505050565b7f4e487b7100000000000000000000000000000000000000000000000000000000600052605160045260246000fdfe526563656976696e67206576656e7420746861742074617267657420616420776173207377697065644944206973206e6f7420696e2077686974656c6973742c2072657475726e696e672066616c7365494420697320696e2077686974656c6973742c2072657475726e696e672074727565a26469706673582212204a98a290a59f7d93f5b6ed99539bed2f1ee50f3e3d96bd6ebd2305b0ca8e416964736f6c63430008090033",
  "linkReferences": {},
  "deployedLinkReferences": {}
}